:060000000A128A11122809
:10000800FE00030EF2000408F3000A08F40083124D
:1000180003137F08F5000A128A119E2E0A128A110C
:100028001528F001F601F701F801F9018316031309
:10003800C701C8018313B830FD000630FE00B9308F
:10004800FF00A03084000A128A11002783010A12D7
:100058008A11DA2B831203135A08E0005B08E100C7
:100068005C08E2000310610D620DE3006308E6001E
:100078005D08E0005E08E1005F08E2000310610D22
:10008800620DE3006308E500660803195728650850
:10009800660203185E286603FF3A6507E000193018
:1000A8006002031C5E285D08DA005E08DB005F085A
:1000B800DC000800650803190800660865020318D3
:1000C8006D286503FF3A6607E000193060020318DF
:1000D80008000630E0006008E400DC1BE417DF1BC2
:1000E8006417DB17FF30DA05FF30DB050030DC056D
:1000F800DE17FF30DD05FF30DE050030DF0565085F
:1001080066020318AD2801300310DD0DDE0DDF0D8A
:10011800FF3E031D88280130E502650866060319BD
:10012800A8280130E402640807390319A828872899
:1001380001300310DC0CDB0CDA0CFF3E031D9D289C
:100148000130E0006008E607660865060319D6284E
:100158009C28660865020318D62801300310DA0DBA
:10016800DB0DDC0DFF3E031DB2280130E6026508F9
:1001780066060319D2280130E40264080739031916
:10018800D228B12801300310DF0CDE0CDD0CFF3E55
:10019800031DC7280130E0006008E507660865060A
:1001A800031DC628E41FE828FF30DA06FF30DB0607
:1001B800FF30DC060130DA07003003180130DB07B6
:1001C800003003180130DC07641FFA28FF30DD0611
:1001D800FF30DE06FF30DF060130DD070030031890
:1001E8000130DE07003003180130DF07E4015A0848
:1001F800DD075B08031103185B0A031DDE075C08B3
:10020800031103185C0A031DDF07DF1F1D29FF30D8
:10021800DD06FF30DE06FF30DF060130DD07003087
:1002280003180130DE07003003180130DF07E4014E
:10023800E40A5D08A0005E08A1005F08A200660845
:10024800E0006008A3006408E1006108A4000A1245
:100258008A116C23831203132008DA002108DB00BB
:100268002208DC000800831203136D08A0006E0842
:10027800A1006F08A2000030A3000030A4000030E5
:10028800A5000A128A1102250A128A110318CC291C
:10029800831203136D08B0006E08B1006F08B20036
:1002A8000A128A111B270A128A11831203133008B3
:1002B800B6003108B7003208B8000030B30070301B
:1002C800B4004030B5000A128A1126220A128A1197
:1002D80083120313330883160313B900831203131D
:1002E800340883160313BA008312031335088316E0
:1002F8000313BB00390883120313E70083160313A3
:100308003A0883120313E800831603133B08831289
:100318000313E9000A128A1143240A128A1183126C
:100328000313670883160313BC00831203136808BA
:1003380083160313BD00831203136908831603137E
:10034800BE003C0883120313C300831603133D0841
:1003580083120313C400831603133E088312031386
:10036800C5000A128A11DE220A128A1183120313A7
:10037800430883160313B8003808C2008312031316
:10038800A0018316031342080A128A11A324080045
:10039800831203136D08B6006E08B7006F08B80023
:1003A8000030B3007030B4004030B5000A128A1132
:1003B80026220A128A11831203133308E70034082D
:1003C800E8003508E9000A128A1143240A128A1142
:1003D80083120313670883160313BF0083120313E2
:1003E800680883160313C000831203136908831671
:1003F8000313C1003F0883120313C30083160313BA
:10040800400883120313C4008316031341088312A0
:100418000313C5000A128A11DE220A128A118312F6
:100428000313430883160313B8003808C200831265
:100438000313A001A00A8316031342080A128A11A3
:10044800A3240800831203133608B9003708BA003A
:100458003808BB0003103A0D3B0DBC003C08C10036
:100468004108031D3E2A0030B3000030B4000030BC
:10047800B50008003308B9003408BA003508BB00D5
:1004880003103A0D3B0DBC003C08C2004208031D96
:10049800542A0030B3000030B4000030B500080022
:1004A8000030BE000030BF000030C0008930420775
:1004B800B9003908C1023608B9003708BA00380847
:1004C800BB0010300310BB0CBA0CB90CFF3E031D67
:1004D800662A3908BC003C08C2003308B900340851
:1004E800BA003508BB0010300310BB0CBA0CB90CAD
:1004F800FF3E031D782A3908BC003C08C20680303C
:10050800B9003908C205B717FF30B605FF30B7057F
:100518000030B805B417FF30B305FF30B40500301C
:10052800B5051830B9003908BD0001300310BE0DFB
:10053800BF0DC00DFF3E031D9A2A35083802031D62
:10054800AB2A34083702031DAB2A33083602031CD2
:10055800B82A3308B6023408031C340FB70235082A
:10056800031C350AB8023E1401300310B60DB70D4E
:10057800B80DFF3E031DB92A0130BD02031D992A9B
:100588003E08A0003F08A1004008A2004108B900A9
:100598003908A3004208BA003A08A4000A128A11CE
:1005A8006C23831203132008B3002108B400220827
:1005B800B5000800831203134308C7004408C800A5
:1005C8004508C9000310480D490DCA004A08D00063
:1005D8005008031DF82A0030C6000030C50000305E
:1005E800C4000030C30008004308C7004408C8001E
:1005F8004508C90017300310C90CC80CC70CFF3ECA
:10060800031DFF2A4708CA004A08CB00C417FF3059
:10061800C305FF30C4050030C5054308CC004408B5
:10062800CD004508CE00CF018E30D002D01F3A2B26
:100638005008803A8F3E03182A2B0030C60000303D
:10064800C5000030C4000030C300080001300310AA
:10065800CF0CCE0CCD0CCC0CFF3E031D2B2B013048
:10066800C7004708D0070319552B2A2B183050020A
:10067800031C522B0030C6000030C5000030C400F7
:100688000030C30008000130C7000310CC0DCD0DA9
:10069800CE0DCF0DC70B492B0130D0025008031DDA
:1006A800472B4B080319632BCC09CD09CE09CF0979
:1006B800CC0A0319CD0A0319CE0A0319CF0A4F0829
:1006C800C6004E08C5004D08C4004C08C300080009
:1006D8008312031323080319762B2208210420040C
:1006E800031D892B0030A0000030A1000030A200BB
:1006F80008000130A5002508A30701300310A20C4B
:10070800A10CA00CFF3E031D822BFE30220503190D
:10071800A42B7D2B0130A5002508A3070130A007D5
:10072800003003180130A107003003180130A20778
:1007380001300310A20CA10CA00CFF3E031D9D2B41
:10074800FF3022050319B32B8E2B0130A302013091
:100758000310A00DA10DA20DFF3E031DAC2BA11B84
:10076800B92B023023020318A92B2318C12BFF3001
:10077800A0057F30A105FF30A2050310A30C2308B4
:10078800A500A601A70110300310A50DA60DA70D01
:10079800FF3E031DC82B2508A0042608A10427082E
:1007A800A204240803190800A21708000A128A11D3
:1007B800D1260A128A110A128A11E7260A128A1108
:1007C8000A128A110D270A128A11701C022C701045
:1007D8000A128A11ED250A128A11831203132108BD
:1007E80083160313C600831203132008831603130A
:1007F800C5000A128A110D270A128A11701D0E2CC3
:1008080083120313A00101300A128A11A3240A12C9
:100818008A117011701E1B2C83120313A001A00AE9
:1008280001300A128A11A3240A128A117012701F49
:10083800372CF01C272C003083120313ED003430C2
:10084800EE00C3302E2C003083120313ED00343039
:10085800EE004330EF000A128A1137210A128A117A
:100868000230F0067013823083160313C400DD30A3
:10087800C300C30B3D2CC40B3D2C422CE92B831227
:1008880003136708DA006808DB006908DC006708FA
:10089800D1006808D2006908D3000A128A116125BC
:1008A8000A128A11831203135108B0005208B100CA
:1008B8005308B2000A128A111B270A128A118312DE
:1008C80003133008DD003108DE003208DF000A12A9
:1008D8008A112E200A128A11831203135A08EA0079
:1008E8005B08EB005C08EC006A08DA006B08DB00C8
:1008F8006C08DC006708DD006808DE006908DF00B6
:100908000A128A112E200A128A11831203135A0816
:10091800E7005B08E8005C08E9006708D1006808A0
:10092800D2006908D3000A128A11612583120313C1
:100938005108E7005208E8005308E900080083124C
:100948000313A300A4012308240203180800073096
:100958007606031DBA2C2003031DBA2C8316031335
:100968002008831203138700F601F22C7608031D72
:10097800CB2C2008031DCB2C831603132E088312BF
:10098800031387000730A1002108F600F22CF61B9C
:10099800F12C7608803A783E0318F12C2003031DC9
:1009A800E02C7608A1002107023EA03E84008313B4
:1009B800000887000130ED2C2008031DF22C760872
:1009C800A1002107FE3EA03E840083130008870093
:1009D800FF30A1002108F607F22C87018230A2001F
:1009E800DD30A100A10BF62CA20BF62CFB2C01305C
:1009F80083120313A1002108A407A72C8312031351
:100A0800A21F2B2D0030A6000030A7008030A800C0
:100A18002009A9002109AA002209AB00A90A031983
:100A2800AA0A0319AB0A2908A6072A0803182A0FD5
:100A38001E2D1F2DA7072B0803182B0F242D252D3E
:100A4800A8072608A0002708A1002808A200A51FBB
:100A5800522D0030A6000030A7008030A8002309DE
:100A6800A9002409AA002509AB00A90A0319AA0AA2
:100A78000319AB0A2908A6072A0803182A0F452DC7
:100A8800462DA7072B0803182B0F4B2D4C2DA80715
:100A98002608A3002708A4002808A5008030A2067D
:100AA8008030A50625082202031D0800240821021B
:100AB800031D0800230820020800831203135108AD
:100AC800A0005208A1005308A2005830D4005408CE
:100AD800A3000A128A112E260A128A1183120313FE
:100AE800D91F7D2D0030D1000030D2000030D30056
:100AF800080000305902153003195802031808007D
:100B08005108C3005208C4005308C5000A128A11CC
:100B1800DE220A128A11831203134608AB00450825
:100B2800AA004408A9004308A8000A128A11AB25A4
:100B3800831203132808D5002908D6002A08D700ED
:100B48005508D1005608D2005708D3000800831270
:100B58000313AF018E30AC002C08AE00AB1FC12DC3
:100B6800A809A909AA09AB09A80A0319A90A031916
:100B7800AA0A0319AB0AAF01AF0AFF302B05031904
:100B8800D32D01300310AB0CAA0CA90CA80CFF3E06
:100B9800031DC62D0130AC002C08AE07C12D280856
:100BA800A0002908A1002A08A2002E08AC002C08E1
:100BB800A3002F08AD002D08A4000A128A116C2387
:100BC800831203132008A8002108A9002208AA00FC
:100BD8000800831203131E08A300831603131E08BC
:100BE80083120313A2002308803AFF0083307F0298
:100BF800031D002EE9302202031C062E8312031364
:100C08008611282E831203132308803AFF008330AD
:100C18007F02031D112EE83022020318252E8312AD
:100C280003132308803AFF0081307F02031D1E2E24
:100C380091302202031C252E8312031386150612F7
:100C4800292E83120313861506162308A1002208ED
:100C5800A000080083120313220821042004031DA6
:100C68003C2E2308840083138001840A8001080035
:100C780022087F39A400A5010310A40DA50D23089F
:100C88008400240883138000840A25088000210D2D
:100C9800210D0139A400A50123088400240880043B
:100CA800840A250880042308840082308007840F82
:100CB80000080318000AFF00FF307F078000840344
:100CC800220880393F38A200A113080083120313B9
:100CD80006187A2E0130F1007108F7070B307702F9
:100CE8000318F01D7C2E7015F0117C2EF701F015FD
:100CF80086188A2E0130F1007108F8070B30780247
:100D08000318F01E8C2E7016F0128C2EF801F016B7
:100D180006199B2E0130F1007108F9070B30790292
:100D2800031C0800F01F08007017F0130800F901F1
:100D3800F01708000B1DA82E0B11643081000A1251
:100D48008A116A260A128A11831203130C1FAE2E07
:100D580070140C137508FF0074088A007308840067
:100D6800720E8300FE0E7E0E09003C3400342E34D1
:100D780000342B340034273400343534003417342D
:100D880000341B3400341E3400343C3400342B341B
:100D98000034353400341B34003407308316031311
:100DA80086008701831203138615061664308100B6
:100DB800831603138112011281110110811001158C
:100DC8008B168B170800FF308316031385009F17B7
:100DD8001F139F111F119F141F10813083120313BB
:100DE8009F000C13831603130C170B178B1708009F
:100DF8007E088A007F088200FC260A128A11800079
:100E0800840A04087D0603190034FF0A0319FE0A40
:100E1800002F073083120313A1007D30A000A00B20
:100E2800132FA10B132F831203131F15080083120E
:100E38000313320831043004031908008030B20665
:020E48000800A0
:02400E003A3F37
:00000001FF
