:060000000A128A11122809
:10000800FE00030EF1000408F2000A08F300831250
:1000180003137F08F4000A128A11F42D0A128A11B8
:100028001528F501F601F701F80183160313BD0140
:10003800BE018313B030FD000630FE004B30FF00D8
:10004800A03084000A128A113E2683010A128A11FE
:10005800BF2D831203135A08E0005B08E1005C0817
:10006800E2000310610D620DE3006308E6005D081D
:10007800E0005E08E1005F08E2000310610D620D18
:10008800E3006308E5006608031956286508660258
:1000980003185D286603FF3A6507E000193060021F
:1000A800031C5D285D08DA005E08DB005F08DC00E1
:1000B80008006508031908006608650203186C281B
:1000C8006503FF3A6607E00019306002031808006C
:1000D8000630E0006008E400DC1BE417DF1B64174F
:1000E800DB17FF30DA05FF30DB050030DC05DE17F3
:1000F800FF30DD05FF30DE050030DF0565086602EC
:100108000318AC2801300310DD0DDE0DDF0DFF3EB6
:10011800031D87280130E502650866060319A7282C
:100128000130E402640807390319A728862801303A
:100138000310DC0CDB0CDA0CFF3E031D9C2801309D
:10014800E0006008E607660865060319D5289B28BD
:10015800660865020318D52801300310DA0DDB0D97
:10016800DC0DFF3E031DB1280130E6026508660676
:100178000319D1280130E402640807390319D1288A
:10018800B02801300310DF0CDE0CDD0CFF3E031D30
:10019800C6280130E0006008E50766086506031D0B
:1001A800C528E41FE728FF30DA06FF30DB06FF30FA
:1001B800DC060130DA07003003180130DB070030B5
:1001C80003180130DC07641FF928FF30DD06FF3013
:1001D800DE06FF30DF060130DD070030031801308E
:1001E800DE07003003180130DF07E4015A08DD0795
:1001F8005B08031103185B0A031DDE075C08031183
:1002080003185C0A031DDF07DF1F1C29FF30DD060A
:10021800FF30DE06FF30DF060130DD07003003184F
:100228000130DE07003003180130DF07E401E40A7B
:100238005D08A0005E08A1005F08A2006608E00053
:100248006008A3006408E1006108A4000A128A118A
:100258006B23831203132008DA002108DB0022082D
:10026800DC000800831203136D08A0006E08A100CB
:100278006F08A2000030A3000030A4000030A500E1
:100288000A128A1198240A128A110318CB29831298
:1002980003136D08B0006E08B1006F08B2000A12AF
:1002A8008A115B260A128A11831203133008B600DA
:1002B8003108B7003208B8000030B3007030B4001D
:1002C8004030B5000A128A1125220A128A118312B7
:1002D8000313330883160313B1008312031334087E
:1002E80083160313B200831203133508831603130E
:1002F800B300310883120313E7008316031332088F
:1003080083120313E80083160313330883120313BD
:10031800E9000A128A11D9230A128A1183120313D7
:10032800670883160313B40083120313680883163F
:100338000313B50083120313690883160313B60069
:10034800340883120313C30083160313350883127A
:100358000313C40083160313360883120313C5005E
:100368000A128A11DD220A128A1183120313430822
:1003780083160313B0003008BA0083120313A001D8
:10038800831603133A080A128A11392408008312C3
:1003980003136D08B6006E08B7006F08B800003088
:1003A800B3007030B4004030B5000A128A1125221B
:1003B8000A128A11831203133308E7003408E8008D
:1003C8003508E9000A128A11D9230A128A11831200
:1003D8000313670883160313B7008312031368080F
:1003E80083160313B80083120313690883160313D3
:1003F800B900370883120313C300831603133808A0
:1004080083120313C40083160313390883120313DA
:10041800C5000A128A11DD220A128A1183120313F7
:10042800430883160313B0003008BA00831203137D
:10043800A001A00A831603133A080A128A11392464
:100448000800831203133608B9003708BA003808C1
:10045800BB0003103A0D3B0DBC003C08C10041082D
:10046800031D3D2A0030B3000030B4000030B50051
:1004780008003308B9003408BA003508BB00031077
:100488003A0D3B0DBC003C08C2004208031D532A2C
:100498000030B3000030B4000030B5000800003070
:1004A800BE000030BF000030C00089304207B900EC
:1004B8003908C1023608B9003708BA003808BB0045
:1004C80010300310BB0CBA0CB90CFF3E031D652A93
:1004D8003908BC003C08C2003308B9003408BA0027
:1004E8003508BB0010300310BB0CBA0CB90CFF3E2A
:1004F800031D772A3908BC003C08C2068030B900C1
:100508003908C205B717FF30B605FF30B705003008
:10051800B805B417FF30B305FF30B4050030B50592
:100528001830B9003908BD0001300310BE0DBF0DE9
:10053800C00DFF3E031D992A35083802031DAA2A5B
:1005480034083702031DAA2A33083602031CB72AC7
:100558003308B6023408031C340FB7023508031CED
:10056800350AB8023E1401300310B60DB70DB80DA8
:10057800FF3E031DB82A0130BD02031D982A3E081C
:10058800A0003F08A1004008A2004108B9003908AE
:10059800A3004208BA003A08A4000A128A116B2381
:1005A800831203132008B3002108B4002208B50001
:1005B8000800831203134308C7004408C80045080D
:1005C800C9000310480D490DCA004A08D000500858
:1005D800031DF72A0030C6000030C5000030C400F3
:1005E8000030C30008004308C7004408C800450895
:1005F800C90017300310C90CC80CC70CFF3E031DF7
:10060800FE2A4708CA004A08CB00C417FF30C305B2
:10061800FF30C4050030C5054308CC004408CD00B0
:100628004508CE00CF018E30D002D01F392B50089C
:10063800803A8F3E0318292B0030C6000030C500D1
:100648000030C4000030C300080001300310CF0C94
:10065800CE0CCD0CCC0CFF3E031D2A2B0130C7005D
:100668004708D0070319542B292B18305002031CB4
:10067800512B0030C6000030C5000030C4000030E7
:10068800C30008000130C7000310CC0DCD0DCE0DFE
:10069800CF0DC70B482B0130D0025008031D462B45
:1006A8004B080319622BCC09CD09CE09CF09CC0A16
:1006B8000319CD0A0319CE0A0319CF0A4F08C60039
:1006C8004E08C5004D08C4004C08C300080083123A
:1006D800031323080319752B220821042004031D82
:1006E800882B0030A0000030A1000030A2000800D4
:1006F8000130A5002508A30701300310A20CA10CA6
:10070800A00CFF3E031D812BFE3022050319A32BED
:100718007C2B0130A5002508A3070130A007003075
:1007280003180130A107003003180130A207013077
:100738000310A20CA10CA00CFF3E031D9C2BFF3044
:1007480022050319B22B8D2B0130A30201300310AF
:10075800A00DA10DA20DFF3E031DAB2BA11BB82BB5
:10076800023023020318A82B2318C02BFF30A00542
:100778007F30A105FF30A2050310A30C2308A500B4
:10078800A601A70110300310A50DA60DA70DFF3E69
:10079800031DC72B2508A0042608A1042708A204C6
:1007A800240803190800A217080083120313670816
:1007B800DA006808DB006908DC006708D10068080F
:1007C800D2006908D3000A128A11F7240A128A1182
:1007D800831203135108B0005208B1005308B20045
:1007E8000A128A115B260A128A118312031330082F
:1007F800DD003108DE003208DF000A128A112D20E0
:100808000A128A11831203135A08EA005B08EB00E4
:100818005C08EC006A08DA006B08DB006C08DC0096
:100828006708DD006808DE006908DF000A128A111F
:100838002D200A128A11831203135A08E7005B0855
:10084800E8005C08E9006708D1006808D200690878
:10085800D3000A128A11F724831203135108E70000
:100868005208E8005308E900080083120313A300A4
:10087800A401230824020318080007307606031D84
:10088800502C2003031D502C8316031320088312B9
:1008980003138700F601882C7608031D612C2008B5
:1008A800031D612C831603132E088312031387007C
:1008B8000730A1002108F600882CF61B872C760843
:1008C800803A783E0318872C2003031D762C76087F
:1008D800A1002107023EA03E840083130008870080
:1008E8000130832C2008031D882C7608A1002107DD
:1008F800FE3EA03E8400831300088700FF30A1005D
:100908002108F607882C87018230A200DD30A1007B
:10091800A10B8C2CA20B8C2C912C0130831203136D
:10092800A1002108A4073D2C83120313A21FC12C88
:100938000030A6000030A7008030A8002009A900D8
:100948002109AA002209AB00A90A0319AA0A031956
:10095800AB0A2908A6072A0803182A0FB42CB52CB5
:10096800A7072B0803182B0FBA2CBB2CA80726089F
:10097800A0002708A1002808A200A51FE82C003025
:10098800A6000030A7008030A8002309A900240988
:10099800AA002509AB00A90A0319AA0A0319AB0A78
:1009A8002908A6072A0803182A0FDB2CDC2CA7071E
:1009B8002B0803182B0FE12CE22CA8072608A3000C
:1009C8002708A4002808A5008030A2068030A506C4
:1009D80025082202031D080024082102031D08001F
:1009E800230820020800831203135108A0005208AC
:1009F800A1005308A2005830D4005408A3000A12DA
:100A08008A1183250A128A1183120313D91F132D01
:100A18000030D1000030D2000030D3000800003090
:100A28005902153003195802031808005108C30069
:100A38005208C4005308C5000A128A11DD220A129E
:100A48008A11831203134608AB004508AA0044081C
:100A5800A9004308A8000A128A114125831203132A
:100A68002808D5002908D6002A08D7005508D1003B
:100A78005608D2005708D300080083120313AF01A9
:100A88008E30AC002C08AE00AB1F572DA809A90961
:100A9800AA09AB09A80A0319A90A0319AA0A03197A
:100AA800AB0AAF01AF0AFF302B050319692D0130DE
:100AB8000310AB0CAA0CA90CA80CFF3E031D5C2D5F
:100AC8000130AC002C08AE07572D2808A0002908D3
:100AD800A1002A08A2002E08AC002C08A3002F08A9
:100AE800AD002D08A4000A128A116B238312031388
:100AF8002008A8002108A9002208AA0008008312DB
:100B08000313220821042004031D912D23088400C7
:100B180083138001840A8001080022087F39A40019
:100B2800A5010310A40DA50D230884002408831330
:100B38008000840A25088000210D210D0139A400B8
:100B4800A5012308840024088004840A2508800459
:100B58002308840082308007840F00080318000AE5
:100B6800FF00FF307F0780008403220880393F3868
:100B7800A200A11308000A128A1124260A128A1157
:100B8800751CD62D04308312031386060030ED0041
:100B98007030EE004030EF000A128A1136210A1236
:100BA8008A117510751DE82D083083120313860607
:100BB8000030ED003430EE004330EF000A128A11A5
:100BC80036210A128A117511823083160313BC006C
:100BD800DD30BB00BB0BEE2DBC0BEE2DF32DC42D71
:100BE8000B1D192E0B11643081000618072E0130D9
:100BF800F0007008F7070B3077020318F51C092E70
:100C08007514F510092EF701F5148618172E013002
:100C1800F0007008F8070B3078020318F51D192E3C
:100C28007515F511192EF801F5157408FF007308EC
:100C38008A0072088400710E8300FE0E7E0E090081
:100C480003308316031386008701831203130615E6
:100C580086156430810083160313811201128111F5
:100C68000110811001158B168B1708007E088A0069
:100C78007F0882003A260A128A118000840A040832
:100C88007D0603190034FF0A0319FE0A3E2E3C3480
:100C980000342E3400342B340034273400343534F7
:100CA8000034173400341B3400341E3400348312EB
:100CB8000313320831043004031908008030B206E7
:020CC800080022
:02400E003A3F37
:00000001FF
