:060000000A128A11122809
:10000800FE00030EF3000408F4000A08F50083124A
:1000180003137F08F6000A128A11592F0A128A114F
:100028001528F001F101F701F801F901831603130E
:10003800C701C801C901CA01CB01CC01CD01CE015C
:100048008313B830FD000F30FE00E830FF00A03009
:1000580084000A128A15892783010A128A11E42A60
:10006800831203135A08E0005B08E1005C08E20011
:100078000310610D620DE3006308E6005D08E0000F
:100088005E08E1005F08E2000310610D620DE30005
:100098006308E500660803195D2865086602031809
:1000A80064286603FF3A6507E00019306002031C04
:1000B80064285D08DA005E08DB005F08DC000800E1
:1000C80065080319080066086502031873286503A4
:1000D800FF3A6607E000193060020318080006308E
:1000E800E0006008E400DC1BE417DF1B6417DB1783
:1000F800FF30DA05FF30DB050030DC05DE17FF30A6
:10010800DD05FF30DE050030DF05650866020318EF
:10011800B32801300310DD0DDE0DDF0DFF3E031D9A
:100128008E280130E502650866060319AE280130FD
:10013800E402640807390319AE288D28013003103A
:10014800DC0CDB0CDA0CFF3E031DA3280130E000B9
:100158006008E607660865060319DC28A228660811
:1001680065020318DC2801300310DA0DDB0DDC0D05
:10017800FF3E031DB8280130E6026508660603192C
:10018800D8280130E402640807390319D828B728A9
:1001980001300310DF0CDE0CDD0CFF3E031DCD2803
:1001A8000130E0006008E50766086506031DCC28F5
:1001B800E41FEE28FF30DA06FF30DB06FF30DC06EE
:1001C8000130DA07003003180130DB07003003186C
:1001D8000130DC07641F0029FF30DD06FF30DE0632
:1001E800FF30DF060130DD07003003180130DE077D
:1001F800003003180130DF07E4015A08DD075B0807
:10020800031103185B0A031DDE075C0803110318BA
:100218005C0A031DDF07DF1F2329FF30DD06FF30DF
:10022800DE06FF30DF060130DD070030031801303D
:10023800DE07003003180130DF07E401E40A5D0837
:10024800A0005E08A1005F08A2006608E000600840
:10025800A3006408E1006108A4000A128A111625A7
:10026800831203132008DA002108DB002208DC00CF
:100278000800831203136D08A0006E08A1006F0820
:10028800A2000030A3000030A4000030A5000A122C
:100298008A11E4250A128A110318D229831203133A
:1002A8006D08B0006E08B1006F08B2000A128A111A
:1002B800F5270A128A11831203133008B600310891
:1002C800B7003208B8000030B3007030B4004030D6
:1002D800B5000A128A112C220A128A1183120313FA
:1002E800330883160313B9008312031334088316E3
:1002F8000313BA0083120313350883160313BB00D4
:10030800390883120313E700831603133A0883128C
:100318000313E800831603133B0883120313E90051
:100328000A128A1184250A128A1183120313670894
:1003380083160313BC008312031368088316031380
:10034800BD0083120313690883160313BE003C081B
:1003580083120313C300831603133D088312031388
:10036800C400831603133E0883120313C5000A1240
:100378008A1175230A128A118312031343088316FC
:100388000313B8003808C20083120313AF018316A1
:10039800031342080A128A11032408008312031364
:1003A8006D08B6006E08B7006F08B8000030B300DB
:1003B8007030B4004030B5000A128A112C220A129B
:1003C8008A11831203133308E7003408E80035085C
:1003D800E9000A128A1184250A128A11831203136A
:1003E800670883160313BF00831203136808831674
:1003F8000313C00083120313690883160313C10093
:100408003F0883120313C3008316031340088312A3
:100418000313C40083160313410883120313C50092
:100428000A128A1175230A128A11831203134308C8
:1004380083160313B8003808C20083120313AF01F0
:10044800AF0A8316031342080A128A11032408000C
:10045800831203133608B9003708BA003808BB00FE
:1004680003103A0D3B0DBC003C08C1004108031DB8
:10047800442A0030B3000030B4000030B500080052
:100488003308B9003408BA003508BB0003103A0D28
:100498003B0DBC003C08C2004208031D5A2A00302C
:1004A800B3000030B4000030B50008000030BE00D2
:1004B8000030BF000030C00089304207B900390859
:1004C800C1023608B9003708BA003808BB00103036
:1004D8000310BB0CBA0CB90CFF3E031D6C2A39087B
:1004E800BC003C08C2003308B9003408BA0035081B
:1004F800BB0010300310BB0CBA0CB90CFF3E031D37
:100508007E2A3908BC003C08C2068030B900390888
:10051800C205B717FF30B605FF30B7050030B8057C
:10052800B417FF30B305FF30B4050030B5051830F7
:10053800B9003908BD0001300310BE0DBF0DC00D54
:10054800FF3E031DA02A35083802031DB12A3408CE
:100558003702031DB12A33083602031CBE2A3308AA
:10056800B6023408031C340FB7023508031C350AD9
:10057800B8023E1401300310B60DB70DB80DFF3E9A
:10058800031DBF2A0130BD02031D9F2A3E08A0009B
:100598003F08A1004008A2004108B9003908A3009B
:1005A8004208BA003A08A4000A128A1116258312D2
:1005B80003132008B3002108B4002208B50008007E
:1005C8000A128A15D2270A128A110A128A15BD2719
:1005D8000A128A110A128A1568270A128A110A123F
:1005E8008A118B270A128A110A128A11D9270A122C
:1005F8008A11701C2D2B70100A128A1576270A1280
:100608008A1183120313210883160313C600831269
:100618000313200883160313C50000300A128A1535
:100628005F270A128A1183160313460883120313DD
:10063800A70083160313450883120313A6000A12A2
:100648008A118E240A128A110A128A1568270A1238
:100658008A11701D392B83120313AF0101300A125E
:100668008A1103240A128A117011701E462B8312F4
:100678000313AF01AF0A01300A128A1103240A12C8
:100688008A117012701F622BF01C522B00308312DB
:100698000313ED003430EE00C330592B00308312C1
:1006A8000313ED003430EE004330EF000A128A11D4
:1006B8003D210A128A110230F0067013711C692B51
:1006C80010308312031386067110823083160313C9
:1006D800C400DD30C300C30B6F2BC40B6F2B742B0E
:1006E800FD2A831203134308C7004408C8004508BD
:1006F800C9000310480D490DCA004A08D000500827
:10070800031D8F2B0030C6000030C5000030C40028
:100718000030C30008004308C7004408C800450863
:10072800C90017300310C90CC80CC70CFF3E031DC5
:10073800962B4708CA004A08CB00C417FF30C305E8
:10074800FF30C4050030C5054308CC004408CD007F
:100758004508CE00CF018E30D002D01FD12B5008D3
:10076800803A8F3E0318C12B0030C6000030C50008
:100778000030C4000030C300080001300310CF0C63
:10078800CE0CCD0CCC0CFF3E031DC22B0130C70094
:100798004708D0070319EC2BC12B18305002031C53
:1007A800E92B0030C6000030C5000030C40000301E
:1007B800C30008000130C7000310CC0DCD0DCE0DCD
:1007C800CF0DC70BE02B0130D0025008031DDE2BE4
:1007D8004B080319FA2BCC09CD09CE09CF09CC0A4D
:1007E8000319CD0A0319CE0A0319CF0A4F08C60008
:1007F8004E08C5004D08C4004C08C3000800831209
:100808000313B200B301320833020318080007309B
:100818007706031D1A2C2F03031D1A2C83160313A6
:100828002008831203138700F701522C7708031D51
:100838002B2C2F08031D2B2C831603132E08831231
:10084800031387000730B0003008F700522CF71B5D
:10085800512C7708803A783E0318512C2F03031D3A
:10086800402C7708B0003007023EA03E8400831376
:100878000008870001304D2C2F08031D522C7708E3
:10088800B0003007FE3EA03E8400831300088700B6
:10089800FF30B0003008F707522C87012F080319E2
:1008A8005D2CFF3083160313C9070318CA0AFF30EB
:1008B800642C013083160313C9070318CA0A0030D1
:1008C800CA0740300A128A155F270A128A1183164E
:1008D80003134A0883120313A70083160313490856
:1008E80083120313A6000A128A118E240A128A118F
:1008F800823083120313B100DD30B000B00B822CBC
:10090800B10B822C872C013083120313B0003008FE
:10091800B307072C83120313AC01AC0AA71F962C4C
:10092800AC01AC032C08A000A101A01BA10327085F
:10093800A3002608A2000A128A11B6270A128A11F1
:10094800831203132108AE002008AD00AB01AA01F1
:10095800A90103302E02E83003192D02031CCD2C07
:100968002D08183EAD002E080318013EFC3EAE00CF
:100978000130A8002808AB07AD2C2D089C3EAD001F
:100988002E080318013EFF3EAE000130A8002808DB
:10099800AA0700302E02643003192D02031CE12C33
:1009A800C12C2D08F63EAD002E080318013EFF3E6F
:1009B800AE000130A8002808A90700302E020A302E
:1009C80003192D020318D52C2C0A031DED2C2D30EC
:1009D800EE2C2B300A128A1596270A128A118312D6
:1009E80003132B08303E0A128A1596270A128A1119
:1009F800831203132A08303E0A128A1596270A1210
:100A08008A11831203132908303E0A128A15962781
:100A18000A128A11831203132D08303E0A128A150E
:100A2800962708008312031323080319202D220890
:100A380021042004031D332D0030A0000030A10044
:100A48000030A20008000130A5002508A3070130E6
:100A58000310A20CA10CA00CFF3E031D2C2DFE3090
:100A6800220503194E2D272D0130A5002508A307BF
:100A78000130A007003003180130A1070030031827
:100A88000130A20701300310A20CA10CA00CFF3EFC
:100A9800031D472DFF30220503195D2D382D013028
:100AA800A30201300310A00DA10DA20DFF3E031DEE
:100AB800562DA11B632D023023020318532D231832
:100AC8006B2DFF30A0057F30A105FF30A205031074
:100AD800A30C2308A500A601A70110300310A50D3B
:100AE800A60DA70DFF3E031D722D2508A00426089C
:100AF800A1042708A204240803190800A217080063
:100B0800831203136708DA006808DB006908DC0051
:100B18006708D1006808D2006908D3000A128A1150
:100B280091260A128A11831203135108B000520841
:100B3800B1005308B2000A128A11F5270A128A1165
:100B4800831203133008DD003108DE003208DF00AD
:100B58000A128A1134200A128A11831203135A08BE
:100B6800EA005B08EB005C08EC006A08DA006B0836
:100B7800DB006C08DC006708DD006808DE00690837
:100B8800DF000A128A1134200A128A118312031311
:100B98005A08E7005B08E8005C08E9006708D1002C
:100BA8006808D2006908D3000A128A1191268312B4
:100BB80003135108E7005208E8005308E900080049
:100BC80083120313A21F0D2E0030A6000030A700C9
:100BD8008030A8002009A9002109AA002209AB0039
:100BE800A90A0319AA0A0319AB0A2908A6072A0899
:100BF80003182A0F002E012EA7072B0803182B0F06
:100C0800062E072EA8072608A0002708A1002808F6
:100C1800A200A51F342E0030A6000030A7008030A7
:100C2800A8002309A9002409AA002509AB00A90ADC
:100C38000319AA0A0319AB0A2908A6072A080318E0
:100C48002A0F272E282EA7072B0803182B0F2D2E27
:100C58002E2EA8072608A3002708A4002808A50008
:100C68008030A2068030A50625082202031D080050
:100C780024082102031D080023082002080083120B
:100C880003130618532E0130F2007208F8070B30D0
:100C980078020318F01D552E7015F011552EF80125
:100CA800F0158618632E0130F2007208F9070B3030
:100CB80079020318F01E652E7016F012652EF901E0
:100CC800F0160619752E0130F20072088316031308
:100CD800CD070B304D020318F01F792E7017F01353
:100CE800792E83160313CD01F01783120313861987
:100CF8008C2E0130F200720883160313CE070B30D6
:100D08004E02031C0800F11C08007114F1100800C1
:100D180083160313CE01F11408008312031351083C
:100D2800A0005208A1005308A2005830D40054086B
:100D3800A3000A128A111D270A128A1183120313AB
:100D4800D91FAD2E0030D1000030D2000030D300C2
:100D5800080000305902153003195802031808001A
:100D68005108C3005208C4005308C5000A128A116A
:100D780075230A128A11831203134608AB0045082B
:100D8800AA004408A9004308A8000A128A11DB2611
:100D9800831203132808D5002908D6002A08D7008B
:100DA8005508D1005608D2005708D300080083120E
:100DB8000313AF018E30AC002C08AE00AB1FF12E30
:100DC800A809A909AA09AB09A80A0319A90A0319B4
:100DD800AA0A0319AB0AAF01AF0AFF302B050319A2
:100DE800032F01300310AB0CAA0CA90CA80CFF3E72
:100DF800031DF62E0130AC002C08AE07F12E280892
:100E0800A0002908A1002A08A2002E08AC002C087E
:100E1800A3002F08AD002D08A4000A128A11162578
:100E2800831203132008A8002108A9002208AA0099
:100E3800080083120313220821042004031D2B2F0A
:100E48002308840083138001840A80010800220893
:100E58007F39A400A5010310A40DA50D2308840063
:100E6800240883138000840A25088000210D210DA1
:100E78000139A400A5012308840024088004840AF9
:100E8800250880042308840082308007840F000826
:100E98000318000AFF00FF307F0780008403220840
:100EA80080393F38A200A11308000B1D7A2F0B11BF
:100EB80064308100013083160313CB070318CC0A72
:100EC8000030CC07F4304B06031D752F4C03031D6F
:100ED800752F203083120313860683160313CB0164
:100EE800CC010A128A1143260A128A1183120313AB
:100EF8000C1F802F70140C137608FF0075088A00E9
:100F080074088400730E8300FE0E7E0E090083129F
:100F180003138801890183160313880189010130AD
:100F28000A128A15A9270A128A1138300A128A1554
:100F3800A9270A128A110C300A128A15A9270A123F
:100F48008A1106300A128A15A9270A128A11023054
:100F58000A128A15A9270A128A1101300A128A155B
:100F6800A927080083120313A401A501201CC22F7E
:100F78002208A4070318A50A2308A50701300310AF
:100F8800A20DA30DFF3E031DC32F01300310A10CBA
:100F9800A00CFF3E031DCA2F20082104031DBA2FF1
:100FA8002508A1002408A0000800831603132008C0
:100FB80083120313870040300A128A155F270A122A
:100FC8008A11831603134A0883120313A700831692
:100FD8000313490883120313A6000A128A118E24E8
:100FE800080083120313320831043004031908007F
:060FF8008030B206080083
:101EBE0083120313A300A31723080A128A15A92756
:101ECE000800073083120313A1007D30A000A00B81
:101EDE006E2FA10B6E2F831203131F150800831292
:101EEE0003131E08A300831603131E088312031385
:101EFE00A2002308A1002208A00008007E088A0084
:101F0E007F08820085270A128A158000840A040839
:101F1E007D0603190034FF0A0319FE0A892F831266
:101F2E000313A2000911891009142208880009154B
:101F3E0009110730A1007D30A000A00BA42FA10B2A
:101F4E00A42F080083120313A2000911891009108F
:101F5E0022088800091509110D30A100FB30A000E0
:101F6E00A00BB72FA10BB72FBC2F0800FF30831685
:101F7E00031385009F171F139F111F119F141F140A
:101F8E008130831203139F000C13831603130C1757
:101F9E000B178B1708000F3083160313860087016B
:101FAE0083120313061686166430810083160313FC
:101FBE008112011281110110811001158B168B17E0
:101FCE0008003C3400342E3400342B3400342734D3
:101FDE00003435340034173400341B3400341E34CE
:101FEE0000343C3400342B340034353400341B348C
:021FFE000034AD
:02400E003A3F37
:00000001FF
